:1000000045C0000053C0000051C000004FC00000B8
:100010004DC000004BC0000049C0000047C00000B8
:1000200045C0000043C0000041C000003FC00000C8
:100030003DC000003BC0000039C0000037C00000D8
:1000400035C0000033C0000031C000002FC00000E8
:10005000DAC200000AC2000029C0000027C0000068
:1000600025C0000023C0000021C000001FC0000008
:10007000E8C10000F0C1000019C0000017C0000076
:1000800015C0000013C0000011C0000011241FBEE5
:10009000CFEFD0E4DEBFCDBF22E0A0E0B1E001C0F1
:1000A0001D92AD31B207E1F735D10CC3A9CFCF9284
:1000B000DF92EF92FF920F931F93CF93DF93CDB711
:1000C000DEB7A0970FB6F894DEBF0FBECDBF80910C
:1000D000000190910101A0910201B0910301892BCF
:1000E0008A2B8B2B09F040C0CE010196BED27C0139
:1000F000092E000CAA0BBB0B809300019093010109
:10010000A0930201B0930301ABD2809100019091C2
:100110000101A0910201B0910301692F7A2F8B2F69
:10012000992787FD9A9580E090E0BED2609100010A
:1001300070910101809102019091030181E090E0B2
:10014000B3D200E010E00CC0E1E0F0E0EC0FFD1FE6
:10015000E00FF11F6081C8010296A6D20F5F1F4F0A
:100160000E151F058CF34DC080E090E095D2E82E6F
:10017000F12CFE2CEE2481E090E08ED2E80EF11CF2
:10018000CE01019672D26C018E0D9F1DA0E0B0E0F1
:100190008093000190930101A0930201B0930301A9
:1001A0005FD28091000190910101A0910201B09174
:1001B0000301692F7A2F8B2F992787FD9A9580E06D
:1001C00090E072D260910001709101018091020172
:1001D0009091030181E090E067D200E010E00EC052
:1001E000C8018E0D9F1DE1E0F0E0EC0FFD1FE00F58
:1001F000F11F6081029658D20F5F1F4F0C151D052D
:100200007CF3A0960FB6F894DEBF0FBECDBFDF9192
:10021000CF911F910F91FF90EF90DF90CF900895B5
:100220008F929F92AF92BF92EF92FF920F931F9384
:10023000CF93DF93CDB7DEB7A0970FB6F894DEBFAC
:100240000FBECDBF80E090E027D2882E912CA12C4C
:10025000B12CBA2CA92C982C882481E090E01CD2D7
:10026000880E911CA11CB11C181419041A041B043B
:100270001CF137C0C80102960FD28A3081F4E1E048
:10028000F0E0EC0FFD1FEE0DFF1D8083B7016F5FE7
:100290007F4FCE01019650D1E12CF12C0AC0E1E054
:1002A000F0E0EC0FFD1FEE0DFF1D80838FEFE81ACD
:1002B000F80A0F5F1F4F04C000E010E0E12CF12CA2
:1002C000C801012E000CAA0BBB0B88159905AA05C5
:1002D000BB0584F2E114F10421F0B701CE010196CF
:1002E0002BD160E080E090E0DFD160E081E090E041
:1002F000DBD1A0960FB6F894DEBF0FBECDBFDF9165
:10030000CF911F910F91FF90EF90BF90AF909F9072
:100310008F90089510920001109201011092020135
:100320001092030155D0789480911C02823021F004
:1003300080911C028530C1F780911C02853011F438
:100340006FDF01C0B4DE8CD110921C02EDCFCF93D1
:10035000DF93FC014D3061F5A6E0B1E011968C9180
:100360001197EF01C80FD11D4A8381818F5F81836F
:1003700011968C91DF01A80FB11D8AE012968C9323
:1003800081818F5F8183DB011C9282E011968C93C7
:100390001197818190E0909305018093040111826F
:1003A0008281863291F485E011968C9311820DC082
:1003B00082E0DB018C9380910701DF01A80FB11D62
:1003C00012964C9381818F5F8183DF91CF91089545
:1003D0001092C50033E33093C40022E22093C000A2
:1003E00098E99093C10086E08093C200E6E0F1E0D6
:1003F00010821182109205011092040110924F0197
:1004000010924E01109216021092170210921802CA
:1004100010921902109248011092490110924A015B
:1004200010924B01ECE4F1E0108211821092CD00A9
:100430003093CC002093C8009093C9008093CA00E9
:1004400008951F920F920FB60F9211240F900FBEB6
:100450000F901F9018951F920F920FB60F921124B4
:100460000F900FBE0F901F9018951F920F920FB60E
:100470000F9211240BB60F928F939F93AF93BF935C
:10048000EF93FF9390911802E091170281E2E89FA9
:10049000F0011124EE56FE4F80A19817A0F4E091D0
:1004A0001702A8E1B2E08C9191E0980F9C9391E241
:1004B000E99FF0011124EE56FE4FE80FF11D8081F7
:1004C0008093C6002CC0E7E1F2E080818F5F8083DB
:1004D00080818F7180831092180290818091160222
:1004E00098130AC01092190210921A02E1ECF0E07F
:1004F00080818F7D808313C0E0911702A8E1B2E074
:100500008C9191E0980F9C9391E2E99FF001112466
:10051000EE56FE4FE80FF11D80818093C600FF91DB
:10052000EF91BF91AF919F918F910F900BBE0F9064
:100530000FBE0F901F901895CF93DF93AC01E6E1AB
:10054000F2E0C081D0E02196CF71DD2790818091CB
:100550001702981730F48091170290E0C817D90756
:1005600019F020E030E019C081E080931A028091F8
:100570001A028111FCCFF5CFE0911602DA01A20F29
:10058000B31F9C9181E2E89FF0011124EE56FE4FCB
:10059000E20FF31F90832F5F3F4F2617370760F35B
:1005A000A6E1B2E0EC9191E2E99FF0011124EE5650
:1005B000FE4F60A3CC9380911902811120C08091DD
:1005C0001B0281111CC081E080931902A8E1B2E0F6
:1005D0001C92E09117028C9191E0980F9C9391E20C
:1005E000E99FF0011124EE56FE4FE80FF11D8081C6
:1005F0008093C600E1ECF0E080818062808381E03E
:10060000DF91CF9108951F920F920FB60F92112490
:100610000BB60F922F933F934F935F936F937F93FC
:100620008F939F93AF93BF93EF93FF934091C60037
:100630006BE172E086E091E08ADEFF91EF91BF917D
:10064000AF919F918F917F916F915F914F913F916A
:100650002F910F900BBE0F900FBE0F901F9018950B
:1006600010920501109204010895AC0120E030E0E1
:100670000BC0FA01E20FF31FD901AA5FBE4F129619
:100680009C9190832F5F3F4F8091040190910501D1
:100690002817390774F30895F999FECF92BD81BDEB
:1006A000F89A992780B50895262FF999FECF1FBA99
:1006B00092BD81BD20BD0FB6F894FA9AF99A0FBE8B
:0806C00001960895F894FFCFA4
:00000001FF
