S01400005541525420736E69666665722E73726563C7
S113000045C0000053C0000051C000004FC00000B4
S11300104DC000004BC0000049C0000047C00000B4
S113002045C0000043C0000041C000003FC00000C4
S11300303DC000003BC0000039C0000037C00000D4
S113004035C0000033C0000031C000002FC00000E4
S1130050C6C2000058C3000029C0000027C0000029
S113006025C0000023C0000021C000001FC0000004
S113007089C20000E1C2000019C0000017C00000DE
S113008015C0000013C0000011C0000011241FBEE1
S1130090CFEFD0E4DEBFCDBF24E0A0E0B1E001C0EB
S11300A01D92A632B207E1F740D1A0C4A9CFBF92F6
S11300B0CF92DF92EF92FF920F931F93CF93DF9330
S11300C0CDB7DEB7A0970FB6F894DEBF0FBECDBF95
S11300D0182F682FCE01019625D47C018091000150
S11300E090910101892B09F042C0F0920101E09244
S11300F00001113049F480910001909101010296B0
S1130100909301018093000180910001909101017D
S1130110692F80E090E05CD460910001709101014E
S113012081E090E055D4113061F461E482E090E024
S11301304FD461E483E090E04BD46894DD24D1F89B
S113014001C0D12C00E010E00EC0E1E0F0E0EC0FC3
S1130150FD1FE00FF11F6081C80102968D0D911DF6
S113016037D40F5F1F4F0E151F057CF352C080E07C
S113017090E026D4C82ED12CDC2CCC2481E090E055
S11301801FD4C80ED11CC7018C0D9D1D9093010175
S113019080930001113049F4809100019091010194
S11301A00296909301018093000180910001909147
S11301B00101692F80E090E00BD4609100017091FF
S11301C0010181E090E004D4113061F461E4C601DE
S11301D00296FED361E4C6010396FAD36894BB2465
S11301E0B1F801C0B12C00E010E010C0E1E0F0E093
S11301F0EC0FFD1FE00FF11F6081C8018C0D9D1DE8
S11302008B0D911D0296E4D30F5F1F4F0E151F0532
S11302106CF3A0960FB6F894DEBF0FBECDBFDF918E
S1130220CF911F910F91FF90EF90DF90CF90BF90EF
S113023008958F929F92AF92BF92EF92FF920F9385
S11302401F93CF93DF93CDB7DEB7A0970FB6F89483
S1130250DEBF0FBECDBF80E090E0B2D3882E912CDC
S1130260A12CB12CBA2CA92C982C882481E090E0E4
S1130270A7D3880E911CA11CB11C181419041A04CC
S11302801B0424F139C0C80102969AD38D3089F435
S1130290E1E0F0E0EC0FFD1FEE0DFF1D8083B701E0
S11302A06F5F7F4F40E0CE0101961DD3E12CF12C0E
S11302B00AC0E1E0F0E0EC0FFD1FEE0DFF1D8083AE
S11302C08FEFE81AF80A0F5F1F4F04C000E010E038
S11302D0E12CF12CC801012E000CAA0BBB0B8815D4
S11302E09905AA05BB057CF2E114F10429F040E06C
S11302F0B701CE010196F7D260E080E090E068D3C8
S113030060E081E090E064D3A0960FB6F894DEBF7D
S11303100FBECDBFDF91CF911F910F91FF90EF9052
S1130320BF90AF909F908F900895CF93DF93CDB7F8
S1130330DEB7C054D1090FB6F894DEBF0FBECDBFEF
S11303401092010110920001DCD0789480911C037A
S1130350823029F080911C03853009F044C08091DB
S11303601C03853011F465DF3AC060E0CE0181964C
S1130370D9D27C0100E010E060E070E024C0E1E24A
S1130380F0E0EC0FFD1FE00FF11F80818D3081F450
S1130390E1E0F0E0EC0FFD1FE60FF71F80836F5FD5
S11303A07F4F41E0CE0101969ED260E070E009C02B
S11303B0E1E0F0E0EC0FFD1FE60FF71F80836F5FB5
S11303C07F4F0F5F1F4F0E151F05CCF2611571058E
S11303D021F041E0CE01019686D280E068DE80E023
S11303E095D210921C0380918B01823029F0809168
S11303F08B01853009F0AACF80918B01853009F4F7
S11304004DC061E0CE0181968DD27C0189A18335F6
S113041081F489E5898381E38A8385E38B8389E396
S11304208C838DE08D8340E065E070E0CE01019621
S11304305AD200E010E060E070E024C0E1E2F0E0B5
S1130440EC0FFD1FE00FF11F80818D3081F4E1E09E
S1130450F0E0EC0FFD1FE60FF71F80836F5F7F4F07
S113046040E0CE0101963FD260E070E009C0E1E0D7
S1130470F0E0EC0FFD1FE60FF71F80836F5F7F4FE7
S11304800F5F1F4F0E151F05CCF26115710521F08A
S113049040E0CE01019627D281E009DE81E036D228
S11304A010928B0153CFFC014D30F1F48181DF01B7
S11304B0A80FB11D12964C9381818F5F8183DB015C
S11304C01C9282E011968C93818190E0DF01AE57FB
S11304D0BF4F11969C938E9311828281863281F450
S11304E085E0FB018183089582E0DB018C938181A7
S11304F0DF01A80FB11D12964C9381818F5F818318
S113050008951092C50033E33093C40022E220938F
S1130510C00098E99093C10086E08093C200E2E0B5
S1130520F1E010821182EBE1F3E01082118210926B
S113053085011092840110922104109222041092D9
S1130540230410922404E7E9F2E010821182EAE81D
S1130550F1E01082118210921A0310921903109282
S113056092021092930210929402109295021092A9
S1130570CD003093CC002093C8009093C9008093A1
S1130580CA0008951F920F920FB60F9211240BB652
S11305900F922F933F934F935F936F937F938F9318
S11305A09F93AF93BF93EF93FF934091CE006AE87C
S11305B071E087E992E077DFFF91EF91BF91AF910E
S11305C09F918F917F916F915F914F913F912F9167
S11305D00F900BBE0F900FBE0F901F9018951F9297
S11305E00F920FB60F9211240BB60F922F933F93D5
S11305F04F935F936F937F938F939F93AF93BF9327
S1130600EF93FF934091C6006BE173E082E091E0C9
S11306104ADFFF91EF91BF91AF919F918F917F91AD
S11306206F915F914F913F912F910F900BBE0F905F
S11306300FBE0F901F9018951F920F920FB60F9236
S113064011240BB60F928F939F93AF93BF93EF93A5
S1130650FF9390919402E091930281E4E89FF0016A
S11306601124E253FE4F80819817A0F4E091930285
S1130670A4E9B2E08C9191E0980F9C9391E4E99FF6
S1130680F0011124E257FE4FE80FF11D80818093A1
S1130690CE002CC0E3E9F2E080818F5F808380810B
S11306A08F738083109294029081809192029813A8
S11306B00AC01092950210929602E9ECF0E0808153
S11306C08F7D808313C0E0919302A4E9B2E08C9102
S11306D091E0980F9C9391E4E99FF0011124E25773
S11306E0FE4FE80FF11D80818093CE00FF91EF91C2
S11306F0BF91AF919F918F910F900BBE0F900FBE42
S11307000F901F9018951F920F920FB60F921124FD
S11307100BB60F928F939F93AF93BF93EF93FF9377
S113072090912304E091220481E4E89FF0011124D4
S1130730E35AFC4F80819817A0F4E0912204A3E2CD
S1130740B4E08C9191E0980F9C9391E4E99FF001BF
S11307501124E35EFC4FE80FF11D80818093C600F5
S11307602CC0E2E2F4E080818F5F808380818F730C
S113077080831092230490818091210498130AC0ED
S11307801092240410922504E1ECF0E080818F7D26
S1130790808313C0E0912204A3E2B4E08C9191E041
S11307A0980F9C9391E4E99FF0011124E35EFC4FC0
S11307B0E80FF11D80818093C600FF91EF91BF91F6
S11307C0AF919F918F910F900BBE0F900FBE0F9022
S11307D01F901895CF92DF92EF92FF920F93CF93D1
S11307E0DF93EC017A01F901EC5FFE4FC080D12C5C
S11307F04FEFC41AD40A8FE3C822DD2490813196C6
S11308008081981728F4808190E0C816D90619F0E1
S1130810E0E0F0E01EC081E0F901E85FFE4F808374
S1130820F901E85FFE4F80818111FACFF1CFD90140
S1130830AC5FBE4F5C91DE01AE0FBF1F9C91D9012E
S113084041E4549FA00DB11D1124AE0FBF1F9C9312
S11308503196E617F70758F3D901AC5FBE4F8C9178
S1130860F90191E4899FE00DF11D1124E05CFF4F33
S11308706083CC92F901E95FFE4F808181112BC026
S1130880F7018081811127C0F901E95FFE4F81E002
S113089080833197108211969C91808141E0480FAA
S11308A04083F1E49F9F200D311D1124F901E80FCD
S11308B0F11D8081011108C08093C600E1ECF0E0D5
S11308C080818062808307C08093CE00E9ECF0E0F1
S11308D0808180628083DF91CF910F91FF90EF90B0
S11308E0DF90CF9008950F93411107C000E02DE1F0
S11308F033E04BE153E06EDF06C001E02EE831E067
S11309004AE851E067DF81E00F910895811103C047
S1130910E2E0F1E002C0E7E9F2E0EE57FF4F1182B6
S1130920108208950F931F93CF93DF93CDB7DEB753
S1130930C458D1090FB6F894DEBF0FBECDBF8C01E9
S113094061110CC084E8E2E0F1E0DE01119601904F
S11309500D928A95E1F720E030E017C084E8E7E9DA
S1130960F2E0DE01119601900D928A95E1F7F3CF42
S1130970D801A20FB31FE3E0F0E0EC0FFD1FE20F7C
S1130980F31F90819C932F5F3F4FCD57DF4F4881DA
S11309905981C358D0402417350754F3CD57DF4F3E
S11309A088819981C358D040CC57DF4F0FB6F89453
S11309B0DEBF0FBECDBFDF91CF911F910F91089580
S11309C0F999FECF92BD81BDF89A992780B5089513
S11309D0262FF999FECF1FBA92BD81BD20BD0FB657
S11309E0F894FA9AF99A0FBE01960895F894FFCFF5
S9030000FC
