:1000000045C0000053C0000051C000004FC00000B8
:100010004DC000004BC0000049C0000047C00000B8
:1000200045C0000043C0000041C000003FC00000C8
:100030003DC000003BC0000039C0000037C00000D8
:1000400035C0000033C0000031C000002FC00000E8
:1000500079C20000A9C1000029C0000027C000002B
:1000600025C0000023C0000021C000001FC0000008
:100070001DC000001BC0000019C0000017C0000018
:1000800015C0000013C0000011C0000011241FBEE5
:10009000CFEFD0E4DEBFCDBF21E0A0E0B1E001C0F2
:1000A0001D92AA3FB207E1F735D1C7C2A9CFCF92BF
:1000B000DF92EF92FF920F931F93CF93DF93CDB711
:1000C000DEB7A0970FB6F894DEBF0FBECDBF80910C
:1000D000000190910101A0910201B0910301892BCF
:1000E0008A2B8B2B09F040C0CE0101967AD27C017D
:1000F000092E000CAA0BBB0B809300019093010109
:10010000A0930201B093030167D280910001909106
:100110000101A0910201B0910301692F7A2F8B2F69
:10012000992787FD9A9580E090E079D2609100014F
:1001300070910101809102019091030181E090E0B2
:100140006ED200E010E00CC0E1E0F0E0EC0FFD1F2B
:10015000E00FF11F6081C801029661D20F5F1F4F4F
:100160000E151F058CF34DC080E090E050D2E82EB4
:10017000F12CFE2CEE2481E090E049D2E80EF11C37
:10018000CE0101962ED26C018E0D9F1DA0E0B0E035
:100190008093000190930101A0930201B0930301A9
:1001A0001BD28091000190910101A0910201B091B8
:1001B0000301692F7A2F8B2F992787FD9A9580E06D
:1001C00090E02DD2609100017091010180910201B7
:1001D0009091030181E090E022D200E010E00EC097
:1001E000C8018E0D9F1DE1E0F0E0EC0FFD1FE00F58
:1001F000F11F6081029613D20F5F1F4F0C151D0572
:100200007CF3A0960FB6F894DEBF0FBECDBFDF9192
:10021000CF911F910F91FF90EF90DF90CF900895B5
:100220008F929F92AF92BF92EF92FF920F931F9384
:10023000CF93DF93CDB7DEB7A0970FB6F894DEBFAC
:100240000FBECDBF80E090E0E2D1882E912CA12C92
:10025000B12CBA2CA92C982C882481E090E0D7D11D
:10026000880E911CA11CB11C181419041A041B043B
:100270001CF137C0C8010296CAD18A3081F4E1E08E
:10028000F0E0EC0FFD1FEE0DFF1D8083B7016F5FE7
:100290007F4FCE010196EFD0E12CF12C0AC0E1E0B6
:1002A000F0E0EC0FFD1FEE0DFF1D80838FEFE81ACD
:1002B000F80A0F5F1F4F04C000E010E0E12CF12CA2
:1002C000C801012E000CAA0BBB0B88159905AA05C5
:1002D000BB0584F2E114F10421F0B701CE010196CF
:1002E000CAD060E080E090E09AD160E081E090E0E8
:1002F00096D1A0960FB6F894DEBF0FBECDBFDF91AA
:10030000CF911F910F91FF90EF90BF90AF909F9072
:100310008F90089510920001109201011092020135
:100320001092030110D078948091F801823011F07E
:100330008530D1F7853011F473DF01C0B8DE4CD1C0
:100340001092F801F1CF1092C50083E38093C400AE
:1003500082E28093C00088E98093C10086E08093A8
:10036000C20010926A0110926E011092F90110926F
:1003700025011092240110926C0110926B011092D1
:10038000F3011092F4011092F5011092F60110920F
:100390006601109267011092680110926901109233
:1003A0006D011092F80108951F920F920FB60F92EF
:1003B00011240BB60F928F939F93AF93BF93EF933C
:1003C000FF939091F501E091F40181E2E89FF00143
:1003D0001124E159FE4F80A19817A0F4E091F40197
:1003E000A5EFB1E08C9191E0980F9C9391E2E99F89
:1003F000F0011124E159FE4FE80FF11D8081809337
:10040000C6002CC0E4EFF1E080818F5F80838081A3
:100410008F7180831092F50190818091F301981380
:100420000AC01092F6011092F701E1ECF0E0808131
:100430008F7D808313C0E091F401A5EFB1E08C9132
:1004400091E0980F9C9391E2E99FF0011124E1590A
:10045000FE4FE80FF11D80818093C600FF91EF9160
:10046000BF91AF919F918F910F900BBE0F900FBED8
:100470000F901F901895CF93DF93AC01E3EFF1E05D
:10048000C081D0E02196CF71DD2790818091F40169
:10049000981730F48091F40190E0C817D90719F04B
:1004A00020E030E019C081E08093F7018091F701EE
:1004B0008111FCCFF5CFE091F301DA01A20FB31F58
:1004C0009C9181E2E89FF0011124E159FE4FE20F77
:1004D000F31F90832F5F3F4F2617370760F3A3EF7B
:1004E000B1E0EC9191E2E99FF0011124E159FE4F56
:1004F00060A3CC938091F601811120C080916D01A1
:1005000081111CC081E08093F601A5EFB1E01C923F
:10051000E091F4018C9191E0980F9C9391E2E99F16
:10052000F0011124E159FE4FE80FF11D8081809305
:10053000C600E1ECF0E080818062808381E0DF91A1
:10054000CF9108951F920F920FB60F9211240BB600
:100550000F928F939F93EF93FF939091C6009D30DE
:1005600019F580916E01E82FF0E0EA5DFE4F90836F
:100570008F5FE82FF0E0EA5DFE4F9AE090838F5F97
:1005800010926D0192E09093F80190E09093250114
:100590008093240110926E0180912601863289F4A5
:1005A00085E08093F8010DC082E080936D01809119
:1005B0006E01E82FF0E0EA5DFE4F90838F5F80933D
:1005C0006E01FF91EF919F918F910F900BBE0F9055
:1005D0000FBE0F901F9018951092250110922401C4
:1005E0000895AC0120E030E00AC0FA01E20FF31FE9
:1005F000D901AA5DBE4F9C9190832F5F3F4F8091A0
:10060000240190912501281739077CF30895F99961
:10061000FECF92BD81BDF89A992780B50895262F07
:10062000F999FECF1FBA92BD81BD20BD0FB6F894D7
:0E063000FA9AF99A0FBE01960895F894FFCF3A
:00000001FF
