S01400005541525420736E69666665722E73726563C7
S113000045C0000053C0000051C000004FC00000B4
S11300104DC000004BC0000049C0000047C00000B4
S113002045C0000043C0000041C000003FC00000C4
S11300303DC000003BC0000039C0000037C00000D4
S113004035C0000033C0000031C000002FC00000E4
S113005093C2000025C3000029C0000027C000008F
S113006025C0000023C0000021C000001FC0000004
S113007056C20000AEC2000019C0000017C0000044
S113008015C0000013C0000011C0000011241FBEE1
S1130090CFEFD0E4DEBFCDBF22E0A0E0B1E001C0ED
S11300A01D92A83AB207E1F73BD161C4A9CFCF9220
S11300B0DF92EF92FF920F931F93CF93DF93CDB70D
S11300C0DEB7A0970FB6F894DEBF0FBECDBF809108
S11300D0000190910101A0910201B0910301892BCB
S11300E08A2B8B2B09F042C060E0CE010196DFD34E
S11300F07C01092E000CAA0BBB0B8093000190938A
S11301000101A0930201B093030180E0CBD380915D
S1130110000190910101A0910201B0910301692FA6
S11301207A2F8B2F992787FD9A9580E090E011D440
S1130130609100017091010180910201909103018D
S113014081E090E006D400E010E00CC0E1E0F0E0D3
S1130150EC0FFD1FE00FF11F6081C8010296F9D377
S11301600F5F1F4F0E151F058CF34FC080E090E00A
S1130170E8D3E82EF12CFE2CEE2481E090E0E1D3CC
S1130180E80EF11C60E0CE01019691D36C018E0D56
S11301909F1DA0E0B0E08093000190930101A09323
S11301A00201B093030180E07DD38091000190911E
S11301B00101A0910201B0910301692F7A2F8B2FC5
S11301C0992787FD9A9580E090E0C3D36091000160
S11301D070910101809102019091030181E090E00E
S11301E0B8D300E010E00EC0C8018E0D9F1DE1E001
S11301F0F0E0EC0FFD1FE00FF11F60810296A9D320
S11302000F5F1F4F0C151D057CF3A0960FB6F894D5
S1130210DEBF0FBECDBFDF91CF911F910F91FF9035
S1130220EF90DF90CF9008958F929F92AF92BF92FC
S1130230EF92FF920F931F93CF93DF93CDB7DEB767
S1130240A0970FB6F894DEBF0FBECDBF80E090E05C
S113025078D3882E912CA12CB12CBA2CA92C982CB3
S1130260882481E090E06DD3880E911CA11CB11C00
S1130270181419041A041B0424F139C0C801029685
S113028060D38A3089F4E1E0F0E0EC0FFD1FEE0D5D
S1130290FF1D8083B7016F5F7F4F40E0CE01019661
S11302A0EED2E12CF12C0AC0E1E0F0E0EC0FFD1FEE
S11302B0EE0DFF1D80838FEFE81AF80A0F5F1F4FC2
S11302C004C000E010E0E12CF12CC801012E000C68
S11302D0AA0BBB0B88159905AA05BB057CF2E11492
S11302E0F10429F040E0B701CE010196C8D260E0E4
S11302F080E090E02ED360E081E090E02AD3A096E5
S11303000FB6F894DEBF0FBECDBFDF91CF911F9122
S11303100F91FF90EF90BF90AF909F908F900895B2
S1130320CF93DF93CDB7DEB7C054D1090FB6F8949D
S1130330DEBF0FBECDBF10920001109201011092DA
S1130340020110920301AAD0789480911E02823097
S113035021F080911E02853059F480911E0285306F
S113036011F462DF01C0A3DE80E09CD210921E0271
S113037080914D01823021F080914D01853029F723
S113038080914D01853081F488E4898385E68A83F0
S11303908CE68B838C838FE68D8340E065E070E090
S11303A0CE0101966CD23FC061E0CE0181967FD22E
S11303B07C01092E000CAA0BBB0B809300019093C7
S11303C00101A0930201B093030181E06BD200E02C
S11303D010E060E070E024C0E1E2F0E0EC0FFD1F0B
S11303E0E00FF11F80818A3081F4E1E0F0E0EC0F4E
S11303F0FD1FE60FF71F80836F5F7F4F40E0CE0144
S113040001963DD260E070E009C0E1E0F0E0EC0F5D
S1130410FD1FE60FF71F80836F5F7F4F0F5F1F4F36
S11304200E151F05CCF210924D018FCFFC014D30FB
S113043041F58181DF01A80FB11D12964C93818192
S11304408F5F81838181DF01A80FB11D8AE012963D
S11304508C9381818F5F8183DB011C9282E01196F2
S11304608C93818190E0DF01AE5BBF4F11969C932A
S11304708E9311828281863281F485E0FB0181832F
S1130480089582E0DB018C938181DF01A80FB11D07
S113049012964C9381818F5F818308951092C500D9
S11304A033E33093C40022E22093C00098E9909390
S11304B0C10086E08093C200E4E0F1E01082118282
S11304C0EDE1F2E010821182109247011092460190
S11304D01092A3021092A4021092A5021092A602F6
S11304E0E9EDF1E010821182ECE4F1E01082118276
S11304F010921C0210921B021092D4011092D5018A
S11305001092D6011092D7011092CD003093CC00F6
S11305102093C8009093C9008093CA0008951F9245
S11305200F920FB60F9211240BB60F922F933F9395
S11305304F935F936F937F938F939F93AF93BF93E7
S1130540EF93FF934091CE006CE471E089ED91E06C
S11305506DDFFF91EF91BF91AF919F918F917F914B
S11305606F915F914F913F912F910F900BBE0F9020
S11305700FBE0F901F9018951F920F920FB60F92F7
S113058011240BB60F922F933F934F935F936F9366
S11305907F938F939F93AF93BF93EF93FF93409178
S11305A0C6006DE172E084E091E040DFFF91EF91DD
S11305B0BF91AF919F918F917F916F915F914F9177
S11305C03F912F910F900BBE0F900FBE0F901F9075
S11305D018951F920F920FB60F9211240BB60F921B
S11305E08F939F93AF93BF93EF93FF939091D60113
S11305F0E091D50181E2E89FF0011124E05BFE4F18
S113060080A19817A0F4E091D501A6EDB1E08C91FA
S113061091E0980F9C9391E2E99FF0011124E05B33
S1130620FE4FE80FF11D80818093CE002CC0E5EDD4
S1130630F1E080818F5F808380818F71808310924D
S1130640D60190818091D40198130AC01092D701E9
S11306501092D801E9ECF0E080818F7D808313C093
S1130660E091D501A6EDB1E08C9191E0980F9C93B7
S113067091E2E99FF0011124E05BFE4FE80FF11DC8
S113068080818093CE00FF91EF91BF91AF919F91B4
S11306908F910F900BBE0F900FBE0F901F90189567
S11306A01F920F920FB60F9211240BB60F928F93D5
S11306B09F93AF93BF93EF93FF939091A502E09123
S11306C0A40281E2E89FF0011124E15EFD4F80A1C4
S11306D09817A0F4E091A402A5EAB2E08C9191E00D
S11306E0980F9C9391E2E99FF0011124E15EFD4F84
S11306F0E80FF11D80818093C6002CC0E4EAF2E08B
S113070080818F5F808380818F7180831092A502A6
S113071090818091A30298130AC01092A6021092AD
S1130720A702E1ECF0E080818F7D808313C0E0912B
S1130730A402A5EAB2E08C9191E0980F9C9391E217
S1130740E99FF0011124E15EFD4FE80FF11D808166
S11307508093C600FF91EF91BF91AF919F918F91CC
S11307600F900BBE0F900FBE0F901F901895CF9255
S1130770DF92EF92FF920F93CF93DF93EC017A0114
S1130780F901EC57FF4FC080D12C4FEFC41AD40AA3
S11307908FE1C822DD24908131968081981728F456
S11307A0808190E0C816D90619F0E0E0F0E01EC0A0
S11307B081E0F901E857FF4F8083F901E857FF4FC3
S11307C080818111FACFF1CFD901AC57BF4F5C9131
S11307D0DE01AE0FBF1F9C91D90141E2549FA00DD1
S11307E0B11D1124AE0FBF1F9C933196E617F70776
S11307F058F3F901EC57FF4F8081D90191E2899FA9
S1130800A00DB11D112490966C93C0823396808103
S113081081112DC0F7018081811129C0F901E957A7
S1130820FF4F81E0808331971082D901AB57BF4FCE
S11308309C91808141E0480F4083F1E29F9F200D0D
S1130840311D1124F901E80FF11D8081011108C047
S11308508093C600E1ECF0E080818062808307C071
S11308608093CE00E9ECF0E0808180628083DF91A8
S1130870CF910F91FF90EF90DF90CF9008950F9359
S1130880411107C000E02FE132E04DE152E06FDF9B
S113089006C001E020E531E04CE451E068DF81E08E
S11308A00F910895109247011092460108950F93F5
S11308B01F93CF93DF93CDB7DEB7C454D1090FB6DE
S11308C0F894DEBF0FBECDBF8C0161110CC084E46F
S11308D0E4E0F1E0DE01119601900D928A95E1F7D2
S11308E020E030E017C084E4E9EDF1E0DE01119688
S11308F001900D928A95E1F7F3CFD801A20FB31FAF
S1130900E3E0F0E0EC0FFD1FE20FF31F90819C93F6
S11309102F5F3F4F25964EAD5FAD259724173507C2
S113092064F325968EAD9FAD2597CC5BDF4F0FB654
S1130930F894DEBF0FBECDBFDF91CF911F910F9111
S11309400895F999FECF92BD81BDF89A992780B593
S11309500895262FF999FECF1FBA92BD81BD20BDFF
S11309600FB6F894FA9AF99A0FBE01960895F8947E
S1050970FFCFB3
S9030000FC
